:020000040800F2
:100000000000022031260008490D00084B0D0008B1
:100010004D0D00084F0D0008510D000800000000B4
:10002000000000000000000000000000530D000868
:10003000550D000800000000570D0008590D00087C
:1000400081260008812600088126000881260008F4
:10005000812600088126000849060008812600083C
:1000600081260008812600088126000881260008D4
:1000700081260008812600088126000881260008C4
:10008000610D0008812600088126000881260008ED
:1000900081260008812600088126000881260008A4
:1000A0008126000881260008812600088126000894
:1000B0008126000881260008812600088126000884
:1000C0008126000881260008812600088126000874
:1000D0008126000881260008812600088126000864
:1000E0008126000881260008812600088126000854
:1000F0008126000881260008812600088126000844
:100100008126000881260008812600088126000833
:100110008126000881260008812600088126000823
:100120008126000881260008812600088126000813
:100130008126000800000000000000008126000861
:1001400081260008812600088126000881260008F3
:1001500081260008812600088126000881260008E3
:1001600081260008812600088126000881260008D3
:100170008126000881260008812600080000000072
:1001800000000000812600080000000000000000C0
:100190008126000800000000000000008126000801
:1001A00000000000000000000000000081260008A0
:1001B0008126000881260008812600088126000883
:0401C000812600088C
:1001C40010B5054C237833B9044B13B10448AFF38D
:1001D40000800123237010BD541901200000000089
:1001E400DC26000808B5034B1BB103490348AFF3F1
:1001F400008008BD0000000058190120DC2600081A
:1002040053B94AB9002908BF00281CBF4FF0FF3179
:100214004FF0FF3000F088B9ADF1080C6DE904CE61
:1002240000F006F8DDF804E0DDE9022304B07047CD
:100234002DE9F047089D8E4604468846002B4AD196
:100244008A42174662D9B2FA82F64EB1C6F1200349
:1002540001FA06F820FA03F3B74043EA0808B44069
:100264004FEA174E1FFA87FCB8FBFEF1230C0EFB76
:10027400118843EA084301FB0CF29A4209D9FB189E
:1002840001F1FF3080F0EA809A4240F2E7800239BF
:100294003B449A1AA3B2B2FBFEF00EFB102243EACF
:1002A400024300FB0CFC9C4509D9FB1800F1FF320A
:1002B40080F0D6809C4540F2D3803B44023840EA2B
:1002C4000140A3EB0C0300211DB1F3400022C5E95A
:1002D4000032BDE8F0878B4205D90DB1C5E90001B4
:1002E40000210846F5E7B3FA83F1002946D17345A6
:1002F40002D3824200F20581841A6EEB03020120CC
:100304009046002DE5D0C5E90048E2E7002A00F058
:100314009080B2FA82F6002E40F0A4808A1A030C70
:100324004FEA174E80B2BCB20121B2FBFEFC0EFBB9
:100334001C2243EA024304FB0CF29A4207D9FB183D
:100344000CF1FF3802D29A4200F2E080C4469B1AB4
:10035400B3FBFEF20EFB123340EA034302FB04F448
:100364009C4207D9FB1802F1FF3002D29C4200F2F2
:10037400CA8002461B1B42EA0C40A5E7C1F12006D5
:100384008B4022FA06F71F430EFA01F420FA06F313
:100394002EFA06FE4FEA1749234300FA01F81FFA22
:1003A40087FCBEFBF9F01C0C09FB10EE44EA0E447A
:1003B40000FB0CFEA64502FA01F209D93C1900F132
:1003C400FF3A80F09C80A64540F2998002383C4474
:1003D400A4EB0E041FFA83FEB4FBF9F309FB1344E8
:1003E4004EEA044403FB0CFCA44508D93C1903F170
:1003F400FF3E80F08280A4457FD9023B3C4443EA1F
:100404000040A4EB0C04A0FB02EC64457346E146F7
:1004140062D35FD05DB1B8EB030264EB090404FA64
:1004240006F622FA01F31E43CC40C5E9006400211C
:100434004FE7B1FBF2FC010C41EA0E4180B240EA05
:1004440001423B4638463C46B846BE462026B1FBF0
:10045400F7F1A2EB080241EA0C4166E7014618E70E
:1004640010462CE7C6F120022EFA02F3B740B14041
:1004740020FA02F24FEA174E0A43B3FBFEF8BCB26D
:100484000EFB1833110C41EA034108FB04F9B04098
:1004940089454FEA104380B23ED9791808F1FF3CF0
:1004A40001D289451FD8A1EB0901B1FBFEF909FB73
:1004B40004F80EFB191192B242EA0142424529D2D4
:1004C400BA1809F1FF31C4D24245C2D2A9F10201DE
:1004D4003A44BEE7F0459DD2BEEB02036CEB070C39
:1004E4000138E14696E7A7EB09094944A8F1020C53
:1004F400B1FBFEF909FB04F8DBE773467FE75046DE
:1005040066E70846FDE63B44023A33E7ACF1020CE9
:100514003B441CE749469CE7A1EB0901C446B1FBF7
:10052400FEF909FB04F8C4E7704700BF2DE9F04F5A
:1005340089B00024039404940594069407940094C9
:100544002F4B1A6B42F080021A631A6B02F080027E
:100554000092009A01941A6B42F001021A631A6B1A
:1005640002F001020192019A02941A6B42F0020213
:100574001A631B6B03F002030293029B4FF4404B7C
:10058400CDF80CB001260496DFF87CA003A95046F0
:1005940001F056FC4FF44079CDF80C90DFF86C80F4
:1005A40003A9404601F04CFC4FF410470397154D46
:1005B40003A9284601F044FC22465946504601F05E
:1005C4002FFD22464946404601F02AFD224639467F
:1005D400284601F025FD03964FF4881304930596ED
:1005E40003A9284601F02CFC22460221062001F032
:1005F40099FF062001F0A6FF09B0BDE8F08F00BF07
:10060400003802400000024000080240000402409A
:1006140000B583B000210191094B1A6B42F400121A
:100624001A631B6B03F400130193019B0A46102009
:1006340001F078FF102001F085FF03B05DF804FBA2
:100644000038024008B5012001F0F2FC01F0DEFFA1
:100654003F4B1B68C31AB3F5967F00D208BD3C4BD1
:1006640018603C4801F009FE3B4B1B78042B60D812
:10067400DFE803F003233241500040F6B833374A31
:1006840012683749334801F0C3FD012000F09AFA9B
:10069400344800F08BFA344B1A68D36843F400737F
:1006A400D3602D490A780132304B83FB020303EBFC
:1006B4004303A2EB43030B70D0E740F6B833274A59
:1006C40012682B49234801F0A3FD012000F07AFAB7
:1006D400284800F06BFADEE740F6B8331F4A126888
:1006E40025491C4801F094FD012000F06BFA2348D1
:1006F40000F05CFACFE740F6B833184A1268204994
:10070400144801F085FD012000F05CFA1D4800F05A
:100714004DFAC0E740F6B833104A12681A490D483A
:1007240001F076FD012000F04DFA184800F03EFA81
:10073400B1E740F6B833094A12681549054801F093
:1007440067FD012000F03EFA124800F02FFAA2E7FC
:10075400741901207819012070190120000000206B
:1007640088BB0020F4260008201A0120ABAAAA2A7C
:10077400A88C002000270008C85D00200C27000872
:100784000800002014270008E82E00201C27000879
:1007940068EA00202427000872B6FEE700B58FB08F
:1007A40000230A930B930C930D93089309930193DD
:1007B40002930393049305930693079336484FF0EB
:1007C4008042026043608360344A1268013AC26026
:1007D4000361836100F090FC002850D14FF48053F2
:1007E4000A930AA92C4800F0EDFD002849D12A48B3
:1007F40000F0AEFC002846D100230893099308A911
:10080400254800F071FF00283FD100220192029296
:100814000392059201A9204800F02AFD002836D150
:10082400002300931E4A116B41F400111163126BF3
:1008340002F400120092009A1A481B4A02604FF018
:10084400C062426040228260C3604FF480620261F1
:100854004FF4805242614FF4804282614FF48072BF
:10086400C2614FF400320262436201F06BFC80B952
:10087400094A0C4B53629A630FB05DF804FBFFF70F
:100884008BFFFFF789FFFFF787FFFFF785FFFFF770
:1008940083FFFFF781FF00BF201A0120040000201E
:1008A40000380240781901208860024000B58FB0FA
:1008B40000230A930B930C930D93089309930193CC
:1008C4000293039304930593069307931E481F4AC8
:1008D40002604360836040F6FF72C260036183611B
:1008E40000F00AFC28BB4FF480530A930AA9164867
:1008F40000F068FDF8B9144800F056FCE8B900238C
:100904000893099308A9104800F0EEFEB8B96023D3
:1009140001930023029303930593082201A90A4833
:1009240000F0D5FC68B9084800F088FA0FB05DF80B
:1009340004FBFFF731FFFFF72FFFFFF72DFFFFF752
:100944002BFFFFF729FF00BFD81901200004004046
:1009540000B595B03422002107A801F090FE0023D1
:10096400029303930493059306930093194A116C1D
:1009740041F080511164126C02F080520092009A8E
:10098400019315490A6822F4404242F480420A6005
:100994000A6802F440420192019A0222079201225B
:1009A4000A9210220B920D9307A801F027F868B958
:1009B4000F2302930021039104910591069102A84B
:1009C40000F0D8FE20B915B05DF804FBFFF7E4FE93
:1009D400FFF7E2FE003802400070004008B501F065
:1009E400EFFDFFF7B5FFFFF7A1FDFFF711FEFFF7DE
:1009F400D5FEFFF75BFF08210E4800F0F3FD0E4C17
:100A04000021204600F06CFD40F6B8330B4A126812
:100A14000B490C4801F0FCFB00F05CF90A4800F0BB
:100A2400C5F82368094A12685A63DA6842F4007206
:100A3400DA60FEE7D8190120201A01200000002006
:100A440068EA002078190120242700080400002007
:100A540082B000EB40000023019304E000BF00BF1C
:100A6400019B01330193019B8342F7D302B070478A
:100A740010B51420FFF7ECFF094CA36943F40043BD
:100A8400A3611420FFF7E4FFA36943F00043A361CB
:100A94001420FFF7DDFFA36943F40043A36110BDF5
:100AA4000008024010B504463D4A936943F480436C
:100AB400936110F0800F41D13A4A936943F00043A7
:100AC400936114F0400F40D0364A936943F4805345
:100AD400936114F0200F3ED0334A936943F40073BA
:100AE400936114F0100F3CD02F4A936943F4807340
:100AF4009361FFF7BDFF14F0080F38D0294A9369BA
:100B040043F40043936114F0040F36D0254A9369EB
:100B140043F48053936114F0020F34D0224A936952
:100B240043F40073936114F0010F32D01E4A9369A9
:100B340043F480739361FFF79BFF10BDA2F500623D
:100B4400936943F400439361BBE7164A936943F006
:100B540080539361BDE7144A936943F00073936132
:100B6400BFE7114A936943F080739361C1E70D4A6B
:100B7400936943F000439361C5E70A4A936943F0DC
:100B840080539361C7E7084A936943F00073936104
:100B9400C9E7054A936943F080739361CBE700BFCB
:100BA40000080240000002400004024038B5054637
:100BB400002403E0FFF776FF0134E4B2285D002847
:100BC400F8D138BD10B504463F4A936943F08043D9
:100BD400936110F0800F45D13C4A936943F0004380
:100BE400936114F0400F44D0384A936943F480531E
:100BF400936114F0200F42D0354A936943F4007393
:100C0400936114F0100F40D0314A936943F4807318
:100C14009361FFF72DFF14F0080F3CD02B4A936922
:100C240043F40043936114F0040F3AD0274A9369C4
:100C340043F48053936114F0020F38D0244A93692B
:100C440043F40073936114F0010F36D0204A936982
:100C540043F480739361FFF70BFF40F6B830FFF75E
:100C6400F7FE10BDA2F50062936943F4004393615B
:100C7400B7E7164A936943F080539361B9E7144A7E
:100C8400936943F000739361BBE7114A936943F09E
:100C940080739361BDE70D4A936943F00043936108
:100CA400C1E70A4A936943F080539361C3E7084A52
:100CB400936943F000739361C5E7054A936943F070
:100CC40080739361C7E700BF000802400000024040
:100CD4000004024008B5194B1A6B42F001021A6372
:100CE4001A6B42F002021A631A6B42F004021A638E
:100CF400134A136843F08243136002F58062136859
:100D040043F4A023136002F58062136843F0A04308
:100D1400136047F23050FFF79BFE3320FFF752FF7A
:100D24003220FFF74FFF0C20FFF74CFF2820FFF77E
:100D340049FF0120FFF746FF08BD00BF003802400D
:100D440000000240FEE7FEE7FEE7FEE7FEE770472D
:100D54007047704708B501F04DFC08BD08B502485E
:100D640001F09EFA08BD00BF7819012082B000216D
:100D740000910B4B5A6C42F480425A645A6C02F450
:100D840080420092009A01911A6C42F080521A64D7
:100D94001B6C03F080530193019B02B0704700BFAA
:100DA4000038024010B582B00368B3F1804F04D01C
:100DB4001E4A93422CD002B010BD04460023009377
:100DC4001B4A116C41F001011164126C02F0010222
:100DD4000092009A1748184A02604FF0C0624260BD
:100DE4008360C3604FF4806202614FF480524261B9
:100DF4004FF480428261C3610362436201F0A2F94D
:100E040018B90C4B63629C63D5E7FFF7C5FCF8E7A0
:100E140000230193064B1A6C42F002021A641B6C05
:100E240003F002030193019BC5E700BF00040040E7
:100E340000380240781901208860024000B587B06C
:100E440000230193029303930493059302680E4BCA
:100E54009A4202D007B05DF804FB002300930B4BC9
:100E64001A6B42F002021A631B6B03F00203009335
:100E7400009B0123019302230293059301A90448D3
:100E840000F0DEFFE6E700BF000400400038024047
:100E94000004024030B4036A026A22F001020262D2
:100EA4004268846924F0730C0C6844EA0C0423F04F
:100EB400020C8B6843EA0C03114DA84203D005F5DC
:100EC4008065A84205D123F00803CD682B4323F0A5
:100ED40004030B4DA84203D005F58065A84207D151
:100EE40022F440724D6945EA020C8A6942EA0C0216
:100EF400426084614A684263036230BC704700BF49
:100F04000000014030B4036A026A22F48072026273
:100F14004268C46924F0730C0C6844EA0C0523F499
:100F240000738C6843EA0423114CA04203D004F5F7
:100F34008064A04206D123F40063CC6843EA04230E
:100F440023F480630A4CA04203D004F58064A042D9
:100F540007D122F440524C6942EA04128C6942EAF5
:100F640004124260C5614A68C263036230BC7047C0
:100F74000000014030B4036A026A22F48052026223
:100F84004468C26922F4E6420D6842EA052223F469
:100F940000538D6843EA0533094DA84203D005F593
:100FA4008065A84204D124F480444D6944EA851440
:100FB4004460C2614A680264036230BC704700BF87
:100FC4000000014010B4036A046A24F001040462BE
:100FD400846924F0F00C4CEA021223F00A030B4358
:100FE400826103625DF8044B704710B4036A046ABB
:100FF40024F010040462846924F4704C4CEA023234
:1010040023F0A00343EA0113826103625DF8044BF9
:101014007047836823F070030B4343F00703836036
:1010240070477047704700000368324A904212D0FC
:10103400B0F1804F0FD0A2F57C4290420BD002F564
:101044008062904207D002F58062904203D002F59C
:101054007842904203D123F070034A681343254A2F
:1010640090422AD0B0F1804F27D0A2F57C42904222
:1010740023D002F5806290421FD002F58062904234
:101084001BD002F57842904217D002F5705290427C
:1010940013D002F5806290420FD002F58062904234
:1010A4000BD0A2F59832904207D002F580629042AC
:1010B40003D002F58062904203D123F44073CA68DE
:1010C400134323F080034A6913438A68C2620A689F
:1010D4008262084A904203D002F58062904201D1B4
:1010E4000A690263026842F004020260012242615A
:1010F400036070470000014040B310B5044690F807
:101104003D30F3B1022384F83D30214651F8040BFD
:10111400FFF78AFF012384F8463084F83E3084F8D0
:101124003F3084F8403084F8413084F8423084F809
:10113400433084F8443084F8453084F83D3000204E
:1011440010BD80F83C30FFF72DFEDBE7012070472F
:1011540040B310B5044690F83D30F3B1022384F84F
:101164003D30214651F8040BFFF75EFF012384F85C
:10117400463084F83E3084F83F3084F8403084F8B8
:10118400413084F8423084F8433084F8443084F8A1
:10119400453084F83D30002010BD80F83C30FFF726
:1011A40040FFDBE70120704740B310B5044690F8D8
:1011B4003D30F3B1022384F83D30214651F8040B4D
:1011C400FFF732FF012384F8463084F83E3084F878
:1011D4003F3084F8403084F8413084F8423084F859
:1011E400433084F8443084F8453084F83D3000209E
:1011F40010BD80F83C30FFF715FFDBE70120704796
:1012040030B4036A026A22F01002026244688269FE
:1012140022F4E6420D6842EA052223F020038D6899
:1012240043EA0513114DA84203D005F58065A84291
:1012340006D123F08003CD6843EA051323F040036D
:101244000A4DA84203D005F58065A84207D124F4CD
:1012540040644D6944EA85048D6944EA8504446028
:1012640082614A688263036230BC704700000140B7
:1012740090F83C30012B28D010B50446012380F8A7
:101284003C300C2A1CD8DFE802F0071B1B1B0C1B8C
:101294001B1B111B1B1B16000068FFF7FBFD002026
:1012A4000FE00068FFF7ACFF00200AE00068FFF7DA
:1012B40029FE002005E00068FFF75CFE002000E046
:1012C4000120002384F83C3010BD0220704738B55B
:1012D40090F83C30012B66D004460D46012380F87B
:1012E4003C300C2A5AD8DFE802F0075959591B59E7
:1012F40059593059595944000068FFF7CBFD226809
:10130400936943F0080393612268936923F004030B
:1013140093612268936929690B43936100203EE03D
:101324000068FFF76DFF2268936943F400639361DB
:101334002268936923F4806393612268936929691D
:1013440043EA01239361002029E00068FFF7DAFDF6
:101354002268D36943F00803D3612268D36923F078
:101364000403D3612268D36929690B43D361002044
:1013740015E00068FFF7FEFD2268D36943F40063BB
:10138400D3612268D36923F48063D3612268D3696B
:10139400296943EA0123D361002000E001200023EE
:1013A40084F83C3038BD0220FCE710B4846824F48F
:1013B4007F4C42EA03220A4342EA0C0282605DF84F
:1013C400044B704790F83C30012B78D010B504469C
:1013D400012380F83C30022380F83D300268936892
:1013E40023F47F4323F0770393600B68602B4CD086
:1013F40023D8402B54D011D8202B03D00AD80BB1BA
:10140400102B05D119462068FFF703FE002028E0C1
:10141400012026E0302BF5D0012022E0502B0AD108
:10142400CA6849680068FFF7CDFD50212068FFF7BE
:10143400F0FD002015E0012013E0B3F5805F3AD001
:10144400B3F5005F14D0702B37D1CB684A68896834
:101454000068FFF7AAFF2268936843F0770393605C
:101464000020012384F83D30002384F83C3010BD73
:10147400CB684A6889680068FFF797FF2268936819
:1014840043F4804393600020EBE7CA68496800682E
:10149400FFF7ABFD60212068FFF7BBFD0020E0E70C
:1014A400CA6849680068FFF78DFD40212068FFF78E
:1014B400B0FD0020D5E70020D3E70120D1E70220CA
:1014C400704701F01F014FF0010C0CFA01FC036A94
:1014D40023EA0C030362036A8A40134303627047DE
:1014E40010B504460846002942D194F83E30DBB2D8
:1014F400013B18BF0123002B6ED1002851D10223D8
:1015040084F83E30012201462068FFF7DAFF2368A1
:10151400334A934203D002F58062934203D15A6C5A
:1015240042F400425A6423682D4A934249D0B3F1ED
:10153400804F46D0A2F57C42934242D002F58062AD
:1015440093423ED002F5806293423AD002F578424B
:10155400934236D002F57052934232D0A2F59432BF
:1015640093422ED01A6842F001021A60002032E041
:10157400042908D008290DD094F84130DBB2013B8E
:1015840018BF0123B7E794F83F30DBB2013B18BF23
:101594000123B0E794F84030DBB2013B18BF0123CC
:1015A400A9E7042805D0082807D0022384F841308D
:1015B400A8E7022384F83F30A4E7022384F84030EC
:1015C400A0E79A6802F00702062A07D01A6842F0D8
:1015D40001021A60002010BD0120FCE70020FAE798
:1015E4000000014010B504460846002942D194F891
:1015F4003E30DBB2013B18BF0123002B6ED1002823
:1016040051D1022384F83E30012201462068FFF7BD
:1016140058FF2368334A934203D002F58062934211
:1016240003D15A6C42F400425A6423682D4A93420F
:1016340049D0B3F1804F46D0A2F57C42934242D0C8
:1016440002F5806293423ED002F5806293423AD022
:1016540002F57842934236D002F57052934232D06A
:10166400A2F5943293422ED01A6842F001021A6015
:10167400002032E0042908D008290DD094F8413024
:10168400DBB2013B18BF0123B7E794F83F30DBB26C
:10169400013B18BF0123B0E794F84030DBB2013BB3
:1016A40018BF0123A9E7042805D0082807D002237E
:1016B40084F84130A8E7022384F83F30A4E70223EA
:1016C40084F84030A0E79A6802F00702062A07D09F
:1016D4001A6842F001021A60002010BD0120FCE7E4
:1016E4000020FAE70000014090F83C20012A3DD098
:1016F40010B40346012280F83C20022280F83D20E9
:1017040002685068946820F0700C086840EA0C0085
:1017140050601A68164882421AD0B2F1804F17D02E
:10172400A0F57C40824213D000F5806082420FD045
:1017340000F5806082420BD000F57840824207D0E9
:1017440000F57050824203D0A0F59430824204D157
:1017540024F08004496821439160012283F83D20EC
:10176400002083F83C005DF8044B7047022070476A
:1017740000000140002800F09B8070B50D4604462F
:101784004F4B1B6803F00F038B4208D2CBB24C4A79
:101794001370136803F00F038B4240F08B802368AF
:1017A40013F0020F17D013F0040F04D0454A9368C6
:1017B40043F4E0539360236813F0080F04D0414AC4
:1017C400936843F4604393603E4A936823F0F003C4
:1017D400A1680B439360236813F0010F32D0636850
:1017E400012B21D09A1E012A25D9364A126812F0FB
:1017F400020F61D033498A6822F0030213438B60DD
:1018040000F004FF06462F4B9B6803F00C0362684C
:10181400B3EB820F16D000F0F9FE801B41F288333F
:101824009842F0D9032042E0264A126812F4003F9D
:10183400E0D101203BE0234A126812F0007FD9D1A5
:10184400012034E01E4B1B6803F00F03AB4207D9A1
:10185400EAB21B4B1A701B6803F00F03AB422DD185
:10186400236813F0040F06D0164A936823F4E05358
:10187400E1680B439360236813F0080F07D0114A03
:10188400936823F46043216943EAC103936000F041
:1018940021F80C4B9B68C3F303130B4AD35CD84069
:1018A4000A4B18600A4B186800F064FE002070BDF3
:1018B400012070470120FAE70120F8E70120F6E74C
:1018C400003C02400038024034270008501901202F
:1018D4004C19012008B5464B9B6803F00C03082BF8
:1018E40005D00C2B43D0042B7FD1424819E0404B48
:1018F4005A6802F03F025B6813F4800F12D03C4B2D
:101904005968C1F388113B480023A1FB0001FEF78D
:1019140077FC374B5B68C3F3014301335B00B0FBD7
:10192400F3F008BD324B5868C0F388104FEA401CEE
:10193400BCEB000C6EEB0E0E4FEA8E1343EA9C6375
:101944004FEA8C11B1EB0C0163EB0E03DB0043EAAD
:101954005173C90011EB000C43F1000399020023F9
:101964004FEA8C2041EA9C51FEF74AFCD1E7204B18
:101974005A6802F03F025B6813F4800F10D01C4BCE
:101984005968C1F388111B480023A1FB0001FEF72D
:1019940037FC174B5B68C3F30273B0FBF3F0C0E78B
:1019A400134B5868C0F388104FEA401CBCEB000C82
:1019B4006EEB0E0E4FEA8E1343EA9C634FEA8C11D2
:1019C400B1EB0C0163EB0E03DB0043EA5173C90076
:1019D40011EB000C43F10003990200234FEA8C2021
:1019E40041EA9C51FEF70CFCD3E7034899E700BF9A
:1019F4000038024040787D010024F400002800F003
:101A0400018270B582B00446036813F0010F41D01F
:101A1400994B9B6803F00C03042B32D0964B9B68C4
:101A240003F00C03082B27D0934B9B6803F00C03A3
:101A34000C2B59D06368B3F5803F5BD0B3F5A02F6E
:101A44005ED08D4B1A6822F480321A601A6822F430
:101A540080221A606368002B5CD000F0D7FD054635
:101A6400854B1B6813F4003F14D100F0CFFD401BDD
:101A74006428F5D90320CCE17F4B5B6813F4800F15
:101A8400D2D07D4B1B6813F4003F03D06368002B56
:101A940000F0BA81236813F0020F60D0764B9B6884
:101AA40013F00C0F4AD0744B9B6803F00C03082B03
:101AB4003FD0714B9B6803F00C030C2B69D0E36897
:101AC400002B75D06D4B01221A6000F09FFD054676
:101AD400694B1B6813F0020F61D100F097FD401BA6
:101AE4000228F5D9032094E1634B5B6813F4800F5B
:101AF400A0D0C6E7604A136843F480331360A9E7B3
:101B04005D4B1A6842F480221A601A6842F48032EB
:101B14001A609FE700F07AFD0546574B1B6813F4E3
:101B2400003FB7D000F072FD401B6428F5D90320B4
:101B34006FE1514B5B6813F4800FBAD14E4B1B68B5
:101B440013F0020F03D0E368012B40F05F814A4A8F
:101B5400136823F0F803216943EAC103136023687F
:101B640013F0080F49D06369002B33D0434B012293
:101B7400C3F8802E00F04AFD05463F4B5B6F13F01F
:101B8400020F3AD100F042FD401B0228F5D9032090
:101B94003FE1394B5B6813F4800F90D1CEE7364AAE
:101BA400136823F0F803216943EAC1031360D6E7FD
:101BB400324B00221A6000F029FD05462E4B1B68AB
:101BC40013F0020FCBD000F021FD401B0228F5D901
:101BD40003201EE1294B0022C3F8802E00F016FDDD
:101BE4000546254B5B6F13F0020F06D000F00EFD87
:101BF400401B0228F5D903200BE1236813F0040FDE
:101C040076D01D4B1B6C13F0805F33D100230193FE
:101C1400194B1A6C42F080521A641B6C03F0805307
:101C24000193019B0125164B1B6813F4807F29D077
:101C3400A368012B3AD0052B3ED00F4B1A6F22F02C
:101C440001021A671A6F22F004021A67A368002BB4
:101C54003CD000F0DBFC0646074B1B6F13F0020F71
:101C640045D100F0D3FC801B41F288339842F3D96C
:101C74000320CEE00025D6E70038024000004742AA
:101C8400007000406B4A136843F48073136000F0E3
:101C9400BDFC0646674B1B6813F4807FC8D100F077
:101CA400B5FC801B0228F5D90320B2E0624A136F09
:101CB40043F001031367C9E75F4B1A6F42F0040254
:101CC4001A671A6F42F001021A67BFE700F09EFC20
:101CD4000646594B1B6F13F0020F08D000F096FC18
:101CE400801B41F288339842F3D9032091E0EDB987
:101CF400A369002B00F08C804F4A926802F00C021A
:101D0400082A54D0022B17D04C4B00221A6600F03C
:101D14007DFC0446484B1B6813F0007F45D000F05F
:101D240075FC001B0228F5D9032072E0424A136CAB
:101D340023F080531364DBE7404B00221A6600F063
:101D440065FC05463C4B1B6813F0007F06D000F091
:101D54005DFC401B0228F5D903205AE0E369226A9E
:101D64001343626A43EA8213A26A5208013A43EABD
:101D74000243E26A43EA0263226B43EA02732E4A95
:101D840053602E4B01221A6600F040FC04462A4B95
:101D94001B6813F0007F06D100F038FC001B0228FA
:101DA400F5D9032035E0002033E0002031E0012B99
:101DB40031D0214B5B6803F48001E26991422CD15C
:101DC40003F03F02216A8A4229D1616A47F6C07250
:101DD4001A40B2EB811F24D103F44031A26A5208A5
:101DE400013AB1EB024F1ED103F07062E16AB2EB2B
:101DF400016F1AD103F0E043226BB3EB027F16D1DB
:101E0400002006E001207047012002E0012000E0EC
:101E1400002002B070BD0120FBE70120F9E701209A
:101E2400F7E70120F5E70120F3E70120F1E70120BE
:101E3400EFE700BF00700040003802400000474256
:101E440000230F2B00F2E38070B582B065E0856853
:101E54004FEA430E032404FA0EF425EA0405CC6881
:101E640004FA0EF42C438460446824EA02044A68A9
:101E7400C2F300129A40224342605CE0DC0808345A
:101E840050F8242003F00705AD004FF00F0E0EFAB2
:101E940005FE22EA0E0E0A69AA4042EA0E0240F842
:101EA40024205CE0062200E0002202FA0EF22A431B
:101EB4000234574D45F82420564A94686FEA0C02C0
:101EC40024EA0C054E6816F4801F01D04CEA040580
:101ED400504CA560E46802EA04054E6816F4001F3D
:101EE40001D04CEA04054B4CE560646802EA040541
:101EF4004E6816F4003F01D04CEA0405454C656079
:101F0400246822404D6815F4803F01D04CEA040255
:101F1400404C226001330F2B77D801229A400C6881
:101F240004EA020C32EA0404F4D14C6804F0030419
:101F3400013C012C8BD94A6802F00302032A09D020
:101F4400C4685D000322AA4024EA02048A68AA4005
:101F54002243C2604A6802F00302022A8ED0046857
:101F64004FEA430E032202FA0EF224EA02044A68FC
:101F740002F0030202FA0EF2224302604A6812F4EB
:101F8400403FC7D000220192234A546C44F4804459
:101F94005464526C02F480420192019A9C08A51C7C
:101FA4001B4A52F8255003F0030E4FEA8E0E0F22FF
:101FB40002FA0EF225EA0205184A90423FF474AF81
:101FC40002F58062904216D002F58062904214D0ED
:101FD40002F58062904212D002F58062904210D0E5
:101FE40002F5806290420ED002F5806290423FF486
:101FF40059AF072259E7012257E7022255E7032286
:1020040053E7042251E705224FE702B070BD704741
:1020140000380140003C014000380240000002400A
:102024000AB18161704709048161704770470000FB
:1020340008B5054B5B69034200D108BD024B5861EA
:10204400FFF7F4FFF9E700BF003C014030B4056836
:102054002C6824F480242C60046863608368402B1B
:1020640005D0036899600368DA6030BC7047036880
:102074009A600368D960F8E710B40368D9B21039DC
:102084000A4AA2FB01421209094CA25CC2655F29FB
:1020940007D96FF3090304338365806D5DF8044B3E
:1020A40070476FF309038365F7E700BFABAAAAAAD9
:1020B4002C270008836A826992B9012B0AD0022B6B
:1020C40002D00BB100207047C36A13F0807F28D17F
:1020D40000207047C36AB3F1C07F24D0002070474A
:1020E400B2F5005F09D0022B25D9032B25D1C36A91
:1020F40013F0807F23D100207047032B03D8DFE83F
:1021040003F01404140A00207047C36A13F0807F9C
:102114000DD100207047C36AB3F1C07F09D00020FD
:10212400704701207047012070470120704701204B
:10213400704701207047012070470020704701203C
:102144007047000070B5044600F060FA002C5BD0C4
:102154000546022384F83530002384F8343022689D
:10216400136823F00103136023681A6812F0010F47
:102174000AD000F04BFA431B052BF5D920236365E5
:10218400032084F8350070BD1A6820491140626844
:10219400A0680243E0680243206902436069024385
:1021A400A0690243E0690243206A02430A43616A68
:1021B40004291ED01A602668756925F00705636A2C
:1021C4001D43042B07D1A36A1D43E36A1BB12046B8
:1021D400FFF770FF90B975612046FFF74DFFE26D80
:1021E4003F239340836000206065012384F83530E9
:1021F400C9E7E16A206B01430A43DBE740236365D7
:10220400012084F83500BEE70120BCE73F8010F0D0
:1022140038B50446856D90F8340001282BD0012090
:1022240084F8340094F83500C0B2012804D00023A7
:1022340084F83430022038BD022084F835000020B0
:1022440060652046FFF702FFE26D3F239340AB60D9
:102254002268136843F016031360236C23B12268C9
:10226400136843F0080313602268136843F0010302
:1022740013600020DFE70220DDE790F83530DBB2A1
:10228400022B03D08023436501207047052380F887
:1022940035300268136823F001031360002070478F
:1022A400F0B583B0044600230193724B1D68724B52
:1022B400A3FB0535AD0A876D3E68C26D08239340C4
:1022C400334210D003681A6812F0040F0BD01A6856
:1022D40022F004021A60C26D08239340BB60436D70
:1022E40043F001034365E26D01239340334209D077
:1022F4002268526912F0800F04D0BB60636D43F012
:1023040002036365E26D04239340334209D02268DB
:10231400126812F0020F04D0BB60636D43F0040333
:102324006365E26D10239340334224D0226812681F
:1023340012F0080F1FD0BB6023681A6812F4802FB4
:102344000DD01B6813F4002F04D1236C9BB12046DD
:10235400984710E0A36C73B1204698470BE01A68C5
:1023640012F4807F03D11A6822F008021A60236CE9
:102374000BB120469847E26D20239340334255D059
:102384002268126812F0100F50D0BB6094F83530F8
:10239400DBB2052B0ED023681A6812F4802F33D0D9
:1023A4001B6813F4002F2AD1636C002B3ED0204607
:1023B40098473BE02268136823F0160313602268F1
:1023C400536923F080035361236CA3B1226813681B
:1023D40023F008031360E26D3F239340BB600123A5
:1023E40084F83530002384F83430236D002B3FD03B
:1023F400204698473CE0A36C002BE7D1EBE7E36B66
:10240400A3B12046984711E01A6812F4807F09D1DD
:102414001A6822F010021A60012384F83530002370
:1024240084F83430E36B0BB120469847636DFBB1FD
:10243400636D13F0010F17D0052384F8353022683B
:10244400136823F001031360019B01330193AB4232
:1024540004D823681B6813F0010FF5D1012384F815
:102464003530002384F83430E36C0BB120469847B0
:1024740003B0F0BD50190120B5814E1B002807DBC5
:1024840000F01F02400901239340024A42F8203021
:10249400704700BF00E100E0002808DB0901C9B271
:1024A40000F1604000F5614080F80013704700F0CF
:1024B4000F000901C9B2014B1954704714ED00E033
:1024C40000B500F00700C0F1070CBCF1040F28BFF1
:1024D4004FF0040C031D062B0FD9C31E4FF0FF3E13
:1024E4000EFA0CF021EA000199400EFA03FE22EAEA
:1024F4000E0241EA02005DF804FB0023EEE700004F
:10250400074AD36823F4E0631B041B0C000200F4A5
:10251400E060034343F0BF6343F40033D360704788
:1025240000ED00E010B50446054BD868C0F3022066
:10253400FFF7C6FF01462046FFF7AEFF10BD00BF00
:1025440000ED00E008B5FFF799FF08BD0138B0F1D0
:10255400807F0BD24FF0E0235861054AF02182F8C6
:1025640023100020986107221A61704701207047E8
:1025740000ED00E010B504460E4B1A784FF47A7360
:10258400B3FBF2F30C4A1068B0FBF3F0FFF7DEFF85
:1025940068B90F2C01D901200AE0002221464FF02E
:1025A400FF30FFF7BFFF054B1C60002000E0012057
:1025B40010BD00BF48190120501901204C190120F9
:1025C40008B50B4B1A6842F400721A601A6842F498
:1025D40080621A601A6842F480721A600320FFF75E
:1025E4008FFF0F20FFF7C6FFFEF7C0FB002008BDDA
:1025F400003C0240034A1168034B1B780B441360F0
:10260400704700BF681A012048190120014B18685F
:10261400704700BF681A0120034AD2F8883043F497
:102624007003C2F88830704700ED00E0DFF834D062
:10263400FFF7F2FF0C480D490D4A002302E0D4587D
:10264400C4500433C4188C42F9D30A4A0A4C0023F8
:1026540001E013600432A242FBD300F019F8FEF744
:10266400BDF9704700000220000000205419012029
:1026740054270008541901206C1A0120FEE7024473
:102684000346934200D1704703F8011BF9E70000A9
:1026940070B50D4D0D4C641BA4100026A64209D143
:1026A4000B4D0C4C00F018F8641BA4100026A64235
:1026B40005D170BD55F8043B98470136EEE755F84F
:1026C400043B98470136F2E74C2700084C270008E2
:1026D4004C27000850270008F8B500BFF8BC08BC18
:1026E4009E467047F8B500BFF8BC08BC9E467047CC
:1026F400536177746F6F74680000000054726961ED
:102704006E676C65000000005069616E6F00000028
:1027140047756974617200004472756D00000000B1
:1027240053696E65000000000006101600061016BE
:10273400000000000000000001020304060708096D
:08274400F0DAFF7F0100000044
:04274C00E901000897
:04275000C5010008B7
:102754003C040040863B0000000800000008000024
:102764000008000000080000000800000008000045
:1027740000080000000800002D0800000708000001
:1027840011080000D40600008F090000DB070000D8
:102794005F050000230B00009F0600007B0600007D
:1027A4004B0A0000F9060000D80600007209000078
:1027B40037080000DB060000D10800001D080000F7
:1027C4005F070000520800009D0700006708000032
:1027D400FC070000EB0600009209000065070000FA
:1027E400C6060000E909000044070000AD06000029
:1027F400BB090000F4070000760600009C090000F5
:10280400240800006306000083090000210800007A
:102814008606000018090000340800000A070000BA
:10282400B108000042080000B507000009080000D4
:102834001A0800001E0800008D070000BF070000F2
:10284400A3080000850700007B0700000A090000B8
:10285400A5070000290700001C090000F307000079
:10286400C20600003809000037080000B106000065
:102874002E090000580800009E060000FA08000017
:1028840074080000B8060000A308000096080000C1
:10289400140700004A080000930800007A070000AB
:1028A400E70700003D080000EB070000AA0700004E
:1028B400DA07000076080000CB0700007E0700005E
:1028C400BA0800000708000021070000CF08000034
:1028D4004A080000DB060000D90800008708000051
:1028E400BE060000BD080000A9080000AD060000F7
:1028F40096080000C3080000C60600006008000037
:10290400BB0800002E0700001E080000710800002C
:10291400780700001B08000015080000A308000049
:10292400AF08000019060000460800001E08000059
:1029340064070000B8090000B50700002A0600007B
:102944009B080000D6080000550700004509000058
:102954002B080000E50500005508000043090000AD
:10296400CB07000057080000F007000068060000CD
:10297400590800003F090000FD070000EE070000B1
:10298400AD070000390700003B080000C70800003D
:10299400600800004D070000FA060000110800005E
:1029A400C8080000470800006B0800009D070000ED
:1029B400A10600006B080000B20800009D0700009B
:1029C400010600001B0800005C070000F20700007D
:1029D4003B0D00000D070000150600001E09000055
:1029E4009D030000A70800001E090000E004000089
:1029F4001007000089060000350B0000C80A00001B
:102A04004C0A0000020A0000B90700002609000071
:102A1400C5080000CF08000039080000AD0500001B
:102A24000808000045060000A2080000D9080000BC
:102A3400830600001B090000C9080000900900007B
:102A440099090000C8080000810700006F05000014
:102A54002109000045080000D10700009809000082
:102A6400BE050000030900001908000071080000F9
:102A74008F080000850700000A080000EA0700002C
:102A84006B08000082080000590800004F0800008D
:102A9400BC07000018080000F5070000BD0700008F
:102AA400D4070000BC070000E0070000F6070000A0
:102AB400240800004D080000030800002C08000052
:102AC400090800000F0800000E080000DB070000E2
:102AD400DE070000AA070000E60700001408000053
:102AE400F407000021080000060800001E0800008A
:102AF400230800003B08000017080000DD07000061
:102B0400F0070000C4070000ED0700000108000002
:102B1400DC070000F6070000EF0700000D080000C6
:102B240018080000210800001D080000ED0700003F
:102B340006080000FD070000F2070000000800007E
:102B4400E3070000F4070000ED0700001908000087
:102B540020080000F30700000F080000FA07000037
:102B64000408000026080000F5070000F60700002E
:102B7400EA0700001708000010080000060800001B
:102B84001B080000DB070000E00700000D08000040
:102B9400F1070000F3070000E2070000EB07000064
:102BA400F80700000908000026080000F3070000E9
:102BB400F6070000FD070000F307000012080000FC
:102BC400FB070000E8070000EA070000EE0700002A
:102BD4001D080000040800000D080000040800009F
:102BE400EC070000200800002E080000C8070000C1
:102BF400F80600009E070000820900008608000015
:102C04002D080000C706000010080000300900006D
:102C1400380800001B0800004D070000A40600004F
:102C2400F807000092080000D80800000B08000014
:102C3400C30600003D070000A6080000ED080000E0
:102C44009D080000CA07000014070000E507000003
:102C540093080000E8080000280800006707000047
:102C6400010700000C08000017090000E20800003A
:102C7400A20700004607000069070000FC070000E7
:102C8400050900008D08000077070000F606000023
:102C9400810700008E080000A1080000F80700006A
:102CA400AE070000A70700000E080000430800005C
:102CB4002C080000EC070000C9070000E40700002E
:102CC4000B0800001808000013080000F2070000B9
:102CD400EE070000120800000D0800000F080000B5
:102CE400FC070000EE070000EE07000002080000E9
:102CF4000F08000008080000EE070000EF070000BE
:102D040002080000050800001A0800000908000075
:102D1400EB070000F307000002080000140800009D
:102D24000908000002080000EA070000F20700009A
:102D34000A080000160800000C080000F80700004C
:102D4400E8070000F60700000D0800001208000064
:102D5400CC060000F10A0000010500009107000004
:102D64002F0A0000400800000D0700000D070000B6
:102D7400060B00003406000036070000950800002A
:102D8400680900005F0600004A070000080A000006
:102D9400200800000506000006080000FD090000E8
:102DA4009A070000EA060000380800009B090000AA
:102DB400AF060000C9070000330800004F090000F7
:102DC400880600008707000032090000410800005F
:102DD400EF06000072070000100A0000B5070000AB
:102DE400CB060000EA0700009C090000320700003F
:102DF40012070000880800003A0900006706000076
:102E0400CB0700001509000058080000AC060000BC
:102E1400B6070000D509000078070000300700005D
:102E24009807000072090000A007000021070000B5
:102E34005D080000EE080000F90600006C070000C1
:102E440010090000D20800007D060000B007000051
:102E54009B090000CE0700001C070000B307000018
:102E64008C090000570700004007000078080000A4
:102E7400F20800003F0700003D070000F9080000C9
:102E8400A1080000C7060000AC07000035090000D7
:102E940013080000E1060000D00700009A090000B2
:102EA4005607000045070000160800002509000029
:102EB4005407000056070000DF08000076080000F1
:102EC400DE060000950700003A09000035080000FE
:102ED400C4060000E90700004E0900009507000041
:102EE4002C0700002D080000420900000007000024
:102EF400F5080000AB070000470900007607000052
:102F0400650600009D080000C1070000BC06000023
:102F14005507000012090000AB0700000707000076
:102F24003309000090090000D10700009B0800004D
:102F34008D08000010080000F6060000A30600003B
:102F44004B08000033080000590600009B070000EE
:102F54008C0900005F080000E5070000E00800009D
:102F64006D090000A807000077070000A207000011
:102F7400F007000003070000150700002A080000FE
:102F840077080000C9060000450600002A0A000070
:102F94007E070000770800003D09000012090000C8
:102FA4006A090000410600003A070000EF0700002C
:102FB400B8020000C6090000A90700005209000079
:102FC4009C080000920800004C0A0000D306000090
:102FD400DF06000070050000A20500007507000070
:102FE400A606000067080000A90A0000B80800004F
:102FF40023090000D3080000CA080000540600009A
:10300400FF0600008B0800005F080000890700002D
:1030140077080000EF0800001F0800000F070000F9
:10302400990700006F080000410700001F08000016
:10303400D3080000C0090000EA07000037080000B8
:1030440032080000DE070000870700003407000094
:103054009E070000E9070000E10700009B0700004D
:10306400D70700006A080000FD0700001D080000E3
:103074009008000045080000FD0700001C0800003F
:103084000D080000D3070000B4070000D5070000B6
:10309400E2070000FA070000000800002D08000005
:1030A400330800000A080000FD07000022080000A1
:1030B400FB070000DF070000DF070000F107000046
:1030C400E8070000EC070000F907000020080000F2
:1030D4000D0800000D0800000F0800002208000081
:1030E400E0070000E90700001008000004080000E1
:1030F400E9070000F807000013080000F4070000C7
:10310400F30700000D08000014080000FD0700008C
:10311400FB0700000708000008080000F207000091
:103124000A0800000108000007080000E607000084
:10313400F007000002080000F70700000308000081
:10314400F607000020080000FD0700000608000044
:103154001F08000003080000EA070000EB07000056
:10316400F7070000FB070000E90700000008000063
:10317400020800000D080000FE0700000B08000014
:103184001B080000F307000005080000F907000011
:10319400F0070000EE070000F80700000508000033
:1031A40005080000000800000408000005080000ED
:1031B400FC070000E7070000FF070000D407000039
:1031C40004080000E20700000A0800008A08000062
:1031D400F1080000C9070000D20700006C070000D6
:1031E400CE070000ED060000C4070000FD07000044
:1031F400AB0700002A09000018090000810800003C
:103204005A080000A707000002070000D6070000C4
:10321400C5070000AA0700000A080000EA0700002A
:10322400A40700004C0800006708000078080000AC
:103234008408000048080000B20700004F0700009F
:1032440016080000F0070000950700003A08000087
:10325400B8070000900700003C080000390800008F
:10326400300800009D08000061080000D30700003A
:1032740098070000DC070000DB070000BF07000020
:1032840009080000DA0700009C0700001F0800007E
:103294004A0800002F0800008208000056080000B9
:1032A400FF070000D6070000CD070000F407000068
:1032B400FB070000ED070000EF070000EC0700002B
:1032C400F2070000020800000908000005080000D9
:1032D4000E08000000080000040800000A080000AE
:1032E4000308000000080000FE07000000080000BA
:1032F400FB070000F1070000FD070000FF070000C6
:10330400FB07000000080000040800000908000092
:1033140002080000FD070000030800000008000088
:10332400F6070000010800000E080000F407000082
:1033340009080000D007000009070000F507000095
:103344008D0900004109000058080000EA06000049
:1033540041070000B608000083080000BC08000014
:103364007F070000E4060000470800006D08000025
:103374001C0900001B090000FE060000EF06000007
:10338400CA080000CF080000E50800001408000087
:103394000F070000820700001F0800000309000057
:1033A400C40800008B070000FE060000BA070000F6
:1033B400A9080000DD0800000F0800004C07000009
:1033C4001B070000F9070000F2080000CF08000006
:1033D400E90700001E0700003B0700007608000014
:1033E400240900007308000086070000110700008C
:1033F4009907000081080000D10800002C08000093
:1034040020070000150700000E080000B5080000A2
:103414009E080000C50700000A0700005E070000C0
:1034240055080000050900007D0800007907000028
:1034340030070000B20700006C080000EA08000032
:10344400460800003507000043070000100800008C
:10345400B0080000A2080000E507000022070000F1
:10346400570700003C080000CE0800006408000074
:103474008B0700002B070000A10700007D08000057
:10348400D90800005008000063070000520700003C
:10349400FA0700009A080000A508000027080000A9
:1034A4001707000085070000310800000E0900001E
:1034B4008F080000DC06000032070000FB06000055
:1034C400B107000090080000B7080000C80700001A
:1034D400480700009F0800007C0800009F080000C7
:1034E40084080000190700003507000043080000A5
:1034F4000208000002080000EB070000D7060000E5
:10350400860700009A080000760800009B08000067
:10351400CD0700006F0700005E080000E10800000E
:10352400DA08000087080000DF07000083070000B6
:1035340050080000CA08000053080000DD0700001E
:103544005C0700006F0700004208000086080000C6
:10355400EC070000550700000B07000020070000DF
:1035640013080000BB08000074080000BC0700003A
:10357400230500003E070000AF080000590A0000C0
:103584002E060000E40400009E0800000309000069
:1035940051060000F80A00008B070000B506000081
:1035A400630A0000EE0700003D0900005D0700000B
:1035B4002C0A0000BE050000820800006308000019
:1035C40051070000850600007F0600001007000078
:1035D4008107000075090000D908000031080000C7
:1035E400820700008B0A0000C00700009708000053
:1035F40027080000EB08000035060000EC07000077
:103604009C080000EF080000E80600009B0600008C
:10361400DF070000590700007A0800004C0700008B
:10362400610800000C0800002F080000A207000039
:103634005808000017080000ED070000DF0700002D
:1036440037080000A80700007E0800008B07000070
:1036540035080000E907000022080000E90700001F
:103664000C080000E1070000C20700004908000040
:103674000908000007080000ED070000FE0700002D
:10368400D10700003308000007080000ED07000020
:10369400E4070000030800000A080000EF07000028
:1036A4000C080000F507000004080000EF07000004
:1036B400100800001208000002080000E9070000DA
:1036C400E707000003080000160800001E080000B9
:1036D400F0070000F6070000F10700000B080000E7
:1036E400F70700000D080000F707000002080000BB
:1036F400010800001A080000FF070000020800008B
:10370400F9070000EF0700000B080000FD070000A8
:1037140019080000E8070000F2070000FD07000098
:10372400FB0700000F080000130800000008000059
:10373400FC070000070800000B0800000408000054
:10374400F2070000FD070000020800000C0800005A
:10375400060800000F080000E7070000FB07000050
:10376400EC0700000C08000004080000F307000048
:10377400EC070000FC070000070800000708000031
:103784000308000007080000F6070000F007000027
:103794000C0800000C0800001B080000E1070000F2
:1037A40020080000E907000030080000FF070000BF
:1037B400E4070000BD07000048080000BE07000041
:1037C400D4070000E70800007E070000AF070000F0
:1037D4007A08000028080000950700009D070000F3
:1037E40099080000F10700008C070000E8070000BA
:1037F40081080000100800008C070000FF0700008B
:10380400920800002308000030070000560800005A
:10381400940800009C0700005A0700009F0800005D
:1038240044080000A60700006F0700007F0800009E
:103834006B08000078070000D30700009C08000014
:10384400150800004007000054080000620800004A
:10385400F00700003F0700006B0800005808000054
:10386400BD0700008507000072080000530800002F
:1038740087070000DE070000600800003A08000027
:103884004C0700003F080000570800001C08000017
:10389400680700003308000031080000F507000045
:1038A400D60700000D08000013080000F707000009
:1038B400FB070000FE0700000A08000003080000E0
:1038C400F2070000FA0700000F08000008080000D3
:1038D400E90700000108000012080000FC070000CE
:1038E400F2070000030800000D080000F5070000BF
:1038F400FA070000060800000A080000ED070000AF
:103904000908000008080000060800007508000007
:1039140034070000DE060000F2080000660900001B
:10392400AE08000060070000520700009408000081
:10393400DB08000016090000390800002907000010
:1039440087070000D9070000D50800002D090000F2
:103954009A070000DD060000E70700003E080000AB
:10396400C408000092080000390700003F07000067
:10397400CD07000071080000F708000035080000BA
:10398400030700002A0700004D080000DF080000BC
:103994009C080000C807000024070000730700000B
:1039A4004A080000CF0800007C080000510700000E
:1039B40001070000D5070000990800009B080000DB
:1039C400FF0700001F070000330700003108000054
:1039D400C2080000A2080000B80700002007000089
:1039E4006E0700006D080000F00800005608000093
:1039F4007007000047070000CB0700008E08000096
:103A0400BE080000050800003A0700003B0700005C
:103A140039080000B80800006C080000B507000071
:103A2400430700007407000054080000D208000097
:103A34006A080000810700003A070000EA07000056
:103A440086080000B70800002E0800006807000080
:103A5400590700001F080000A20800009808000091
:103A6400CD0700003407000088070000500800005C
:103A7400B70800006708000068070000FC060000A3
:103A8400A8080000270800003C090000AD08000059
:103A94005B07000039070000280800004A090000FD
:103AA400E40800000909000067080000EC070000B2
:103AB400E008000041090000810800003B08000004
:103AC400DB07000036080000D00800000D090000E4
:103AD400200800004E0700007E070000DB070000FE
:103AE400C9080000170900005D080000DB0700009A
:103AF4001908000092080000D8080000DF08000040
:103B040023080000A3070000210800007708000034
:103B140060080000C7070000E00600007C06000003
:103B2400F2060000800700007B0700000D0700007C
:103B34009A060000BE060000E40700001D0800000D
:103B440062080000930600008A080000590700007C
:103B5400E007000050060000940900003708000048
:103B6400F1070000AC0800003B0800001C0900003D
:103B7400880900009D060000D30600002809000003
:103B840025080000ED0800005D080000250800007D
:103B940049080000B50900006D0800006109000033
:103BA400ED080000E4070000FE060000C90700005D
:103BB400F3070000B60700004207000005070000F5
:103BC400A40800000F0900009E080000E10700009F
:103BD4004C08000055080000F408000051080000DB
:103BE40045080000A4070000400800004906000042
:103BF4002B070000C50A0000E7060000BF0700000D
:103C0400C50600000A0A0000CE07000021050000D6
:103C1400280900003D090000220600008107000079
:103C2400B309000090080000620500004C08000081
:103C3400F3090000BA060000E6070000A807000028
:103C4400340A0000930600003C070000F708000057
:103C5400480800005F070000D40600005109000076
:103C64008808000066060000CA0700008D090000ED
:103C740001080000A90600000D080000170A000052
:103C840029060000A3070000840800003C09000086
:103C940034070000F0060000AF090000F907000037
:103CA400E8060000CC07000067090000D707000001
:103CB400AA0600003608000080090000230700005F
:103CC4007F070000020800008A090000C8060000FF
:103CD4006E0700005E0900003A0800005E0700005D
:103CE40049070000BB090000FB070000A80600000C
:103CF4002208000050090000910700002607000078
:103D04008608000053090000B6060000A30700005F
:103D1400B608000083080000090700002D07000012
:103D240084090000AD0700000B070000D80700005D
:103D34003D09000090070000D1060000740800004F
:103D440010090000060700006B070000AB08000024
:103D5400D1080000C80600009A07000038090000D6
:103D6400A10700006A0700008E070000790900001F
:103D7400A107000004080000430800000507000034
:103D84009406000078060000730800004208000052
:103D94006B07000044080000360A00001209000006
:103DA400370800002B080000070A00001507000070
:103DB40012060000BB060000C2070000190600003E
:103DC400E8060000ED0800005C090000D3080000CC
:103DD4004C080000360A0000610900007107000069
:103DE400B9070000FF0700004B0600006006000052
:103DF400C6060000E408000050070000FF070000AA
:103E0400B00900008B0900005308000012080000EC
:103E1400430900001B080000FC05000087060000A1
:103E2400AE0700005F070000DF060000D8060000B0
:103E3400830B000076090000A1070000E7080000DA
:103E4400E6080000E00A0000B40500008D0600004A
:103E54002C0A0000F204000053060000A009000030
:103E6400A4070000BA08000098090000480A0000EE
:103E740031080000AD060000C408000090080000EE
:103E84008806000070080000170800001E070000E4
:103E9400230800008C08000065060000C30700002A
:103EA400E1080000D407000068070000AB08000028
:103EB400C608000071070000D108000029080000AE
:103EC400BD060000A20700006A0800009107000078
:103ED4001B080000FA08000063080000AD0700009A
:103EE40075070000510900005E0600006A08000022
:103EF40026090000BD05000099090000B60700006E
:103F040082060000B7090000CD070000B8060000D3
:103F14002B09000058080000610600005509000044
:103F2400AE0800000A060000C20900002D080000C7
:103F3400E2050000130A00006A070000B30600004F
:103F44009A090000F00700002C070000DF080000B9
:103F54008B08000067070000FE070000150800003A
:103F6400010800006807000084070000FD08000045
:103F740082070000390700003B090000A107000088
:103F8400F70600006B090000AE070000DB06000026
:103F94007B090000F0070000AE0600006109000084
:103FA400140800006B0600002E09000056080000EB
:103FB400A2060000DD080000A708000006070000B4
:103FC40087080000980800007F070000E907000048
:103FD4001C0800001108000082070000B60700005A
:103FE4009D080000B00700009A070000D8080000F0
:103FF400EB07000030070000F70800003808000055
:10400400CB0600000F0900006D08000092060000B6
:10401400E60800008108000070060000C0080000E7
:10402400B7080000B70600007E080000CA080000B8
:104034002C0700001B0800008E0800008D070000FC
:10404400B807000018080000FB070000BC070000C8
:10405400BD07000082080000060800006307000096
:10406400A8080000580800000A070000C60800005D
:10407400C008000070060000320800009809000023
:10408400B7060000A30800005E080000DD0500007C
:10409400110900006A0900008606000032080000C9
:1040A40092080000EB060000570800000F0900000A
:1040B4008E070000450700006F070000520800004B
:1040C400B4080000D907000061080000CE07000012
:1040D400CC0600008E080000130900003A07000017
:1040E4001D0800005F08000092060000E3080000BD
:1040F40095090000A2060000A9070000B808000006
:10410400E80600006B080000F7090000A4060000A0
:10411400A70600001E080000F1060000B908000010
:10412400780A000070060000B30600006306000071
:104134002F080000F7070000F80500009C080000A5
:10414400070600006B070000DA070000660800009D
:10415400370400001507000041070000EB070000CA
:1041640026090000B708000004060000D10700007B
:104174001B090000BC070000FC090000AF0600009A
:104184000D080000AF050000420800004C070000C5
:104194001C0800003E08000047080000B5080000A5
:1041A400C809000056090000AB09000049070000D7
:1041B400DF070000450900002406000097090000FD
:1041C40013070000470700001D0800004E08000008
:1041D400210800009B080000BE070000D207000071
:1041E400200800005D080000E40700003A08000011
:1041F40016080000DA0700001F0800000F0800007E
:10420400E307000011080000E0070000C9070000F0
:104214000D08000014080000F8070000DF07000084
:1042240008080000EC070000020800002408000051
:10423400F4070000DA07000014080000EF0700008C
:104244000408000022080000F3070000F007000043
:10425400090800001B0800001208000010080000F4
:10426400F0070000EA070000F9070000FC0700005F
:1042740009080000E3070000F3070000E607000058
:10428400F60700001108000010080000F107000004
:10429400050800000F080000FD0700000C080000DE
:1042A40008080000E8070000EA0700001C080000F6
:1042B400F1070000FF0700000F080000E8070000F6
:1042C400FD0700001C0800000C080000FD070000AA
:1042D400F9070000F3070000FC07000001080000D4
:1042E400FF070000FD070000ED07000011080000B3
:1042F4001008000009080000120800000808000067
:10430400F30700000B08000012080000FD0700007E
:10431400E507000001080000E5070000FC070000B5
:1043240012080000E9070000F4070000FB07000082
:10433400FC070000FA0700002A080000E807000054
:10434400E007000038080000CA060000D507000096
:10435400AA0900002B0900005B080000F106000018
:104364004B070000DC08000063080000960800000A
:104374007707000012070000260800007A080000F2
:10438400F6080000DC080000F8060000E106000062
:10439400C0080000B8080000C308000002080000BC
:1043A400180700006A0700003F080000D00800005A
:1043B400BA08000069070000F9060000A807000019
:1043C4007D080000B5080000F60700005307000050
:1043D400110700000E080000DA080000C4080000FD
:1043E400D807000049070000430700008B080000BD
:1043F4000409000050080000B507000094070000FD
:10440400D707000038080000420800000208000036
:10441400D0070000D40700000C08000016080000B4
:1044240012080000EC070000EB070000030800007E
:10443400080800001308000003080000EC0700004F
:10444400F2070000090800000D0800000F08000032
:10445400F6070000EA070000F3070000090800005F
:104464001308000004080000F3070000ED07000033
:10447400F80700001608000016080000FC070000FA
:10448400F1070000EE070000FF070000100800001D
:1044940013080000F9070000E4070000F507000016
:1044A400090800000D08000008080000DB070000F0
:1044B40046080000A505000034090000A109000019
:1044C400E5060000D5060000FB0800005E090000B8
:1044D400B1050000F1070000FB09000023070000FC
:1044E400ED060000610800004E0A0000800600008E
:1044F400580700002909000014080000ED06000018
:10450400800700005B0900003F080000AF060000C0
:10451400220800003C090000C9070000EF06000063
:104524002208000092090000C50600008E07000062
:10453400790800000F09000001070000420700008D
:104544006C09000016080000DA060000BB07000032
:1045540060090000BE070000E306000061080000D7
:10456400470900000F0700005D0700007A080000FB
:10457400FD080000CE060000A407000001090000A9
:1045840030080000660700007C07000052090000A4
:10459400BB070000070700000A0800002909000003
:1045A40073070000FE0600009A08000019090000C5
:1045B400070700009B070000C20800005C08000019
:1045C4000F0700009D07000069090000A50700000F
:1045D4001D070000EB070000300900009B070000E6
:1045E4003107000079080000DA0800002B070000FA
:1045F40080070000D60800009C080000EF060000B9
:10460400B30700001E090000E60700004107000090
:10461400CB07000033090000810700003D070000BC
:1046240083080000D2080000790700001D0700007D
:10463400D30800007308000074070000920700000C
:104644004108000086080000240600003808000025
:104654002E0900001B080000B00800000708000035
:10466400600800008607000092070000210800008F
:104674005F080000D80600002D070000780800003D
:10468400FB0700005F070000DA080000A009000033
:10469400D10700006107000009080000E0080000DD
:1046A4008E070000E506000008080000120800005C
:1046B400250700003C070000170900001509000049
:1046C400CC07000000080000A9080000A4070000AF
:1046D400A4070000FB07000048080000450700008D
:1046E400CB0600006E060000500700003F0A0000E1
:1046F4006F060000E40A0000310A0000690A0000A5
:10470400A90700006D0600006606000019060000F7
:1047140051050000790B0000470700007D080000E8
:10472400AE0A000007080000A60900008306000086
:10473400190600003D07000036060000610800006D
:10474400180800001C090000F50900009508000085
:10475400B3090000490700004D060000740600007C
:10476400FA060000AF070000650700001409000006
:104774001E0900007008000062080000A007000085
:1047840000080000B7060000C80700007709000011
:10479400A908000020080000DE07000080080000CF
:1047A4004F080000FB0600002D07000078070000FA
:1047B400DC070000E9070000F807000071080000AA
:1047C400E90700001F080000430800005F0800001C
:1047D40025080000F50700001A080000FD07000086
:1047E400C0070000C2070000C9070000E10700007D
:1047F400F3070000200800002D0800002608000030
:10480400140800001608000001080000E207000078
:10481400C4070000ED070000FB070000E0070000EC
:10482400FB07000028080000050800001E0800001F
:104834002608000027080000FE070000E907000022
:10484400DF070000FE070000DD070000ED070000A1
:104854001208000004080000FA070000FD07000029
:104864000C080000FD070000FC070000120800000F
:1048740004080000FF070000F90700000A08000010
:1048840013080000EE0700000A080000F707000004
:1048940008080000F9070000F90700000C080000F0
:1048A400F3070000F3070000F807000022080000E7
:1048B400F9070000FC07000006080000FB070000E1
:1048C400EF070000080800000808000016080000B0
:1048D400F8070000030800000308000000080000B7
:1048E40003080000F907000000080000F8070000B2
:1048F400ED0700000108000003080000FA070000AB
:10490400000800000B08000004080000F80700007D
:104914000E080000FB070000F7070000F80700007E
:10492400AD070000A80800002F080000C20700001F
:10493400100800007B070000E90600005A08000088
:104944009E06000062080000390900000809000002
:10495400B2090000D7070000F2060000DF070000DC
:10496400BF070000740700003B0800009807000020
:104974001407000028080000370800009F08000002
:1049840008090000DE080000FE070000F60600002B
:10499400DB070000F607000026070000A908000056
:1049A400C6070000FE060000350800002C080000C1
:1049B4000B080000DB080000CE080000FD07000023
:1049C40078070000D307000003080000A3070000D5
:1049D40014080000FF0700004A070000E207000077
:1049E40053080000EF07000089080000A808000031
:1049F40034080000CE0700008A070000ED0700001D
:104A0400F5070000C907000012080000E1070000D4
:104A1400C60700000608000014080000040800008F
:104A2400160800000D080000070800000308000035
:104A3400FD0700000708000007080000F507000054
:104A4400FC070000F2070000F9070000FC07000063
:104A5400FF0700000208000000080000FF07000034
:104A64000C0800000A080000FF0700000508000009
:104A7400FC070000FD070000FF070000F40700002A
:104A8400010800000A080000F0070000DE0700002B
:104A940011080000E8060000B8080000170900002B
:104AA400960700008C06000056060000FD07000073
:104AB4001C090000610700003907000020070000FE
:104AC400AB0700007E080000120900004D0800003A
:104AD400690700006D060000EC070000770900007C
:104AE4005708000096070000460700003A07000038
:104AF400BF070000FB080000BA0800004E070000D2
:104B0400EC060000A507000093080000030900005C
:104B140027080000200700003907000014080000DF
:104B2400FD0800000509000014080000FE0600004E
:104B3400580700006108000031090000AF080000B8
:104B44006C07000011070000B80700007A08000095
:104B5400DA0800005A080000FD0600001F070000E4
:104B640025080000DA080000BB080000FB0700006D
:104B74000B0700007B070000650800000109000026
:104B8400B40800008707000039070000BB070000D5
:104B940092080000CB0800004D0800003107000017
:104BA4002D0700001B080000C40800009508000041
:104BB400D90700001D070000440700004808000052
:104BC400E7080000810800007A07000028070000B9
:104BD400A007000084080000E90800007308000032
:104BE400610700003807000008080000980800006A
:104BF400A8080000F70700001E0700002D070000AA
:104C0400570800004B080000860800001007000049
:104C140040070000670700000E080000920800002B
:104C24008A0700007A0700000F070000E80600006A
:104C3400E608000082080000E50700000408000000
:104C44008A0700002A08000074090000A308000075
:104C54002C080000370800009907000087080000AE
:104C64000F0900000B080000AE07000092070000C7
:104C7400F10700008B080000A7080000C707000028
:104C84000D07000043070000AC07000043080000C4
:104C9400520800005A0700000607000091070000B0
:104CA40036080000B2080000680800005A07000037
:104CB40028070000C90700001F080000440900007D
:104CC400C1070000BC080000C5070000F20800008E
:104CD40085080000CF080000F80700004407000022
:104CE400940700008A06000080090000F206000014
:104CF4005A0A0000660500000F090000200B00009E
:104D04008308000038060000FA0800009B07000032
:104D1400F8050000D90600004B0A000093060000C5
:104D24004B07000062080000AC0800005A080000AD
:104D3400FA070000BB090000C0050000E8080000F5
:104D440022090000980900005F06000029090000FC
:104D540082070000910600008C070000180800007C
:104D6400FB060000880600005F0700004A070000F9
:104D740041090000AB080000390800008407000066
:104D84004C0800005008000071080000D40700001F
:104D940000080000D40700005F0800002508000098
:104DA400DD070000F3070000CF0700002108000022
:104DB400FA0700000C080000C007000023080000E8
:104DC400EF0700000D080000210800001C08000087
:104DD400E4070000FD070000F707000011080000C9
:104DE400FB07000000080000DE070000D3070000F6
:104DF40016080000FD07000018080000F607000070
:104E040003080000F2070000290800000F08000052
:104E1400FA070000F2070000F1070000F60700009F
:104E24000E08000008080000F1070000FA0700005F
:104E3400EF07000018080000020800001008000036
:104E4400F1070000F9070000010800000A0800004B
:104E540010080000F7070000F4070000EA0700004C
:104E64001408000011080000FC070000F907000006
:104E74000B080000E40700000A080000FA0700001D
:104E84001F080000EC070000FD07000015080000E3
:104E94000E08000008080000F6070000FE070000E6
:104EA400D8070000FD07000010080000F407000008
:104EB400E4070000040800000008000007080000E0
:104EC400020800000D080000EC070000FE070000C7
:104ED4000D0800000D0800000C080000F907000090
:104EE40005080000EB0700000D0800000908000099
:104EF40001080000E5070000F3070000FE070000BA
:104F0400F2070000EC070000FA0700000B0800009D
:104F140011080000F9070000D0070000790800001C
:104F2400DB070000B307000012080000920800002D
:104F3400F907000084070000260800009E0800000E
:104F44009707000055070000CA080000F607000094
:104F54009A070000930700008C0800001C0800005A
:104F6400D307000097070000A50800001D080000F3
:104F7400600700004B08000073080000EB07000006
:104F8400350700006B08000046080000DE0700003B
:104F94003C0700009408000043080000A707000035
:104FA400A00700008E08000043080000600700000E
:104FB40012080000800800001808000027070000FD
:104FC4005F0800004D080000F50700004D070000D1
:104FD400710800005F080000A1070000B507000089
:104FE400760800003F08000078070000030800006E
:104FF400370800001E080000AE0700000C0800007F
:10500400150800000A080000E3070000FE0700007E
:105014000B08000008080000F5070000F90700006D
:10502400040800000E080000F6070000FB0700005B
:105034000B08000003080000F5070000FE0700004D
:105044000F080000FB070000F4070000FD07000044
:1050540010080000F9070000F50700000D08000023
:10506400F3070000F7070000BE0700007806000001
:10507400CA07000020090000A508000091070000ED
:10508400BF060000DB07000049090000CF0800004C
:105094007B08000021070000A206000002080000AF
:1050A40061080000A10800007A080000FE06000064
:1050B400DD0600009E080000D4080000B1080000CE
:1050C40088070000090700001C080000A008000071
:1050D400FE080000B108000066070000ED060000AD
:1050E4003D080000440900002E090000C607000026
:1050F400640700007307000009080000E7080000C7
:10510400C40800006D070000100700008D070000B0
:10511400980800000F090000180800003707000075
:105124001F07000022080000F1080000FA08000030
:105134000008000047070000220700005A0800008A
:1051440031090000A90800007507000034070000B9
:10515400B507000045080000D0080000430800001F
:105164002C070000E9060000250800009B08000049
:1051740095080000D9070000240700003B07000041
:105184003B080000F7080000B20800009D0700007B
:105194001F070000CD0700005F080000E0080000C2
:1051A40051080000630700003207000001080000F6
:1051B4008A080000A7080000E007000009070000B3
:1051C4004207000029080000D70800006E0800000C
:1051D40084070000380700002D0800005A0A000068
:1051E400350A0000A6090000C0070000B40700004B
:1051F400AC070000990800004509000042080000BF
:1052040000080000100800005D080000D30800003A
:10521400D7080000F8070000860700003B080000DC
:10522400FB0800003F0900001D090000A80700005A
:1052340058070000EA070000120800002E080000CA
:105244008E07000067060000420600000507000004
:10525400860700005A07000019070000CA0600006C
:1052640019070000050800008E080000020800006D
:105274005007000033070000870700003F080000C4
:10528400A2080000050800003207000055070000CE
:10529400DA070000440800009D080000210800000F
:1052A400F8060000CB080000870700006F09000023
:1052B400BB090000A40900009C0700005C08000072
:1052C400F2080000A3070000140800002A070000E9
:1052D400870700003609000010080000810700005D
:1052E400C4060000B9070000C90600008D070000CD
:1052F40093070000B207000045060000E60700001F
:105304002D090000110A000079090000C9080000F5
:105314003F090000B4080000710800006D07000098
:1053240076080000200700001F0600009705000013
:1053340031070000D0070000250800009006000097
:10534400A70600004107000071070000A407000041
:1053540099090000D3050000B9070000CE08000039
:10536400DF08000075070000AA060000610B0000BA
:10537400C30600002D070000E208000098090000A1
:10538400A506000046060000C009000081080000D0
:10539400FE050000B108000020090000CE0700004F
:1053A400B0060000F8070000E9090000A1060000AB
:1053B40006080000B2070000D0090000DB06000068
:1053C400AE0600004C0900007F080000FE06000045
:1053D4005F070000890900002F0800004C06000048
:1053E40043080000E80900001E0700003A07000017
:1053F400080800009309000071060000CB070000B4
:1054040017090000540800006B070000240700007F
:10541400C50900000C080000DF060000F8070000C2
:1054240050090000C10700000A07000049080000F5
:105434008B090000D70600007507000089080000EA
:10544400D8080000C80600000D07000095090000F8
:10545400B40700001F070000A10700004409000072
:10546400A9070000AB060000540800004C09000026
:10547400260700006A07000090080000FC080000EE
:10548400CB0600009B070000260900000508000069
:105494003107000059070000A4090000BC07000000
:1054A40012070000480800002809000078070000DF
:1054B400320700009E080000D9080000E40600003E
:1054C400AF070000E908000077080000E9060000C3
:1054D400270700009C08000066070000250700005D
:1054E40075080000040A0000A8080000A9070000CD
:1054F400DA09000016090000850700002C070000E7
:105504007807000039070000AA050000880600009B
:105514001A090000220800000E08000053090000C8
:105524003B0A000091080000F2070000A6080000F2
:105534005108000025060000EF050000C307000025
:1055440079070000CA060000B2070000C409000081
:105554002409000029080000A0080000CB0900006D
:10556400C10700003A07000021070000B50700004A
:105574005A0600006E06000092080000C6080000EB
:105584004F0800006E080000EA08000069070000E8
:1055940098080000810500001F090000D2070000E0
:1055A400E1060000FE03000040080000A20800001D
:1055B40047040000FF0A0000AA0900007608000062
:1055C4002608000019090000D8080000EE050000B4
:1055D4009D0700009E07000091050000A807000039
:1055E4007A0800004D0800002B0800005F08000046
:1055F400F80800001507000041080000A508000095
:1056040056060000AF0800001C090000BA0700009D
:10561400B207000001090000BA0700007607000085
:10562400D708000007070000D5060000BA080000EC
:1056340001080000FD070000000800000008000049
:10564400FF07000000080000040800000008000034
:10565400FF070000C4050000C0070000D10B0000D4
:1056640002000000120E0000540F0000FC010000B4
:10567400A007000020050000470600005B0D0000A5
:10568400F00F0000ED08000000000000ED00000035
:105694000A0A00003E0B0000680C0000210B000009
:1056A400A002000003070000E10800005B080000FE
:1056B4006E080000F80800007B0800000C060000DB
:1056C4007705000084080000E30A00006D0900006B
:1056D400C90800000D060000820500008B070000C9
:1056E4005A0A00000809000072070000770700004A
:1056F400440800005E07000061070000EF07000097
:10570400190900005E09000083070000A3050000DA
:1057140019070000070900006B090000C708000012
:10572400BA060000F7060000A2080000A108000065
:10573400A40700005A0700008C080000CD080000F0
:10574400C0070000120700007F070000780800006F
:10575400DB08000033080000880700005107000040
:105764001F0800007D0800000308000099070000DE
:10577400060800005208000020080000B2070000DC
:10578400C107000028080000330800001D080000BD
:10579400ED070000C1070000DB0700001C08000043
:1057A4004F08000028080000C1070000BC070000E3
:1057B400FD0700002C08000018080000F607000090
:1057C400F50700002808000029070000120800005F
:1057D400F5070000AE050000500F00002D0000008A
:1057E4008E0C0000F2090000BB010000C10600009D
:1057F40066090000F90F00005F0A0000EB060000D4
:105804000500000096080000150A00002E0D000097
:10581400950D0000C2020000830500002909000064
:1058240054070000780800007509000059080000BA
:105834008507000030040000CA070000830A000046
:105844006B090000DF090000C0060000120500001B
:105854000D07000063090000E1090000FA070000D9
:105864004A07000011080000A207000075070000A5
:10587400BC0700006708000068090000DC0800009D
:1058840018060000730600008A0800008E09000054
:10589400320900003A0700008706000021080000D2
:1058A400BD080000040800005C07000000080000B8
:1058B400F00800003B08000039070000350700002D
:1058C40022080000D80800008A080000C20700006F
:1058D4003F070000DB0700007F0800003A080000D3
:1058E400A1070000DE0700004A0800003708000096
:1058F400D8070000A6070000FB07000045080000C9
:105904002208000004080000C6070000D2070000B7
:10591400FF0700004308000046080000DF070000FE
:10592400B4070000E5070000220800002208000078
:10593400FE070000EE07000010080000EF0700005B
:105944007507000002000000260F00003404000068
:1059540027040000060C000050050000B00C0000F5
:105964002E030000560B00001F0A0000F008000080
:105974002D0800002508000048090000690A0000FD
:105984001A0700004A0A0000FA0700002E09000066
:1059940036090000F305000052090000D607000094
:1059A40004070000E70900007E060000EE0800007E
:1059B400AE0800004C070000E2080000E107000008
:1059C400160800003E080000680700004B080000AD
:1059D400D1070000C107000040080000B90700001B
:1059E40037080000EB070000FD0700005208000024
:1059F400E807000016080000C3070000DA070000EB
:105A040027080000140800002F080000E907000020
:105A14000108000008080000F8070000F50700006E
:105A2400EE070000FE0700000F0800001808000041
:105A340005080000EE070000F60700000D0800004E
:105A4400FE070000F2070000FE070000F807000050
:105A540018080000F80700000D080000FF07000008
:105A6400F207000009080000F9070000FE07000023
:105A740006080000FA07000002080000F80700000A
:105A8400FF070000FE070000010800000D080000E9
:105A9400FF070000FC0700000108000001080000E7
:105AA40004080000000800000408000010080000BA
:105AB400F0070000F5050000BB010000250F000001
:105AC400450300001D090000CA0A0000210500006A
